:100000000C9448000C945A000C945A000C945A001A
:100010000C945A000C945A000C945A000C945A00F8
:100020000C945A000C945A000C945A000C945A00E8
:100030000C945A000C945A000C945A000C945A00D8
:100040000C945A000C945A000C948D000C945A0095
:100050000C94EA000C945A000C945A000C945A0028
:100060000C945A000C945A000C945A000C945A00A8
:100070000C945A000C945A000C945A000C945A0098
:100080000C945A000C945A000C945A000C945A0088
:1000900011241FBECFEFCDBFDFE7DEBF28E7A0E012
:1000A000B8E701C01D92A230B207E1F70E940E012D
:1000B0000C9416010C94000080910A0680FDFCCF80
:1000C00080910D0680FF0EC0809110069091110660
:1000D00022E02093460480930D09109200788093CB
:1000E000017808958091007890910178F4CF9091F3
:1000F0000D09E1E3F2E881E005C082E8ED34F8079C
:1001000059F081919813F9CF82E080934504909340
:10011000080681E080930A0608951F920F920FB699
:100120000F9211242F938F939F93EF93FF938091BE
:100130000B0987FD0AC0FF91EF919F918F912F913D
:100140000F900FBE0F901F90189581FD16C09091D3
:100150000D09E1E3F2E881E005C082E8ED34F8073B
:1001600051F381919813F9CF82E0809345049093E5
:10017000080681E080930A06DECF80910A0680FDA2
:10018000FCCF80910D0680FF0EC0809110069091EB
:10019000110622E02093460480930D091092007806
:1001A00080930178C8CF8091007890910178F4CF46
:1001B000E0E4F4E082E081838093E60588E08387D1
:1001C0008CE08487E0E0F9E010828AE8848781ECA3
:1001D000818708951F920F920FB60F9211248F936B
:1001E000EF93FF93E0E4F9E084818483FF91EF9142
:1001F0008F910F900FBE0F901F90189585E0809300
:10020000E50582E080934204E0E4F9E01082808119
:100210008160808381E082830895089581E08093E6
:1002200000060E94FE000E940D01FDCFF894FFCF52
:1002300001020304050607101112131415161718EE
:0D024000191A1B1C1D1E1F40424445484951
:00000001FF
